{
  "contractName": "VRFConsumerExample",
  "abi": [
    {
      "inputs": [
        {
          "internalType": "uint64",
          "name": "subscriptionId",
          "type": "uint64"
        },
        {
          "internalType": "address",
          "name": "VRFCoordinatorV2Interfaceaddr",
          "type": "address"
        },
        {
          "internalType": "bytes32",
          "name": "_keyHash",
          "type": "bytes32"
        },
        {
          "internalType": "uint32",
          "name": "_callbackGasLimit",
          "type": "uint32"
        },
        {
          "internalType": "uint16",
          "name": "_requestConfirmations",
          "type": "uint16"
        },
        {
          "internalType": "uint32",
          "name": "_numWords",
          "type": "uint32"
        }
      ],
      "stateMutability": "nonpayable",
      "type": "constructor"
    },
    {
      "inputs": [
        {
          "internalType": "address",
          "name": "have",
          "type": "address"
        },
        {
          "internalType": "address",
          "name": "want",
          "type": "address"
        }
      ],
      "name": "OnlyCoordinatorCanFulfill",
      "type": "error"
    },
    {
      "anonymous": false,
      "inputs": [
        {
          "indexed": false,
          "internalType": "uint256",
          "name": "requestId",
          "type": "uint256"
        },
        {
          "indexed": false,
          "internalType": "uint256[]",
          "name": "randomWords",
          "type": "uint256[]"
        }
      ],
      "name": "RequestFulfilled",
      "type": "event"
    },
    {
      "anonymous": false,
      "inputs": [
        {
          "indexed": false,
          "internalType": "uint256",
          "name": "requestId",
          "type": "uint256"
        },
        {
          "indexed": false,
          "internalType": "uint32",
          "name": "numWords",
          "type": "uint32"
        }
      ],
      "name": "RequestSent",
      "type": "event"
    },
    {
      "inputs": [],
      "name": "COORDINATOR",
      "outputs": [
        {
          "internalType": "contract VRFCoordinatorV2Interface",
          "name": "",
          "type": "address"
        }
      ],
      "stateMutability": "view",
      "type": "function"
    },
    {
      "inputs": [],
      "name": "callbackGasLimit",
      "outputs": [
        {
          "internalType": "uint32",
          "name": "",
          "type": "uint32"
        }
      ],
      "stateMutability": "view",
      "type": "function"
    },
    {
      "inputs": [],
      "name": "keyHash",
      "outputs": [
        {
          "internalType": "bytes32",
          "name": "",
          "type": "bytes32"
        }
      ],
      "stateMutability": "view",
      "type": "function"
    },
    {
      "inputs": [],
      "name": "lastRequestBlockNumber",
      "outputs": [
        {
          "internalType": "uint256",
          "name": "",
          "type": "uint256"
        }
      ],
      "stateMutability": "view",
      "type": "function"
    },
    {
      "inputs": [],
      "name": "lastRequestId",
      "outputs": [
        {
          "internalType": "uint256",
          "name": "",
          "type": "uint256"
        }
      ],
      "stateMutability": "view",
      "type": "function"
    },
    {
      "inputs": [],
      "name": "numWords",
      "outputs": [
        {
          "internalType": "uint32",
          "name": "",
          "type": "uint32"
        }
      ],
      "stateMutability": "view",
      "type": "function"
    },
    {
      "inputs": [
        {
          "internalType": "uint256",
          "name": "requestId",
          "type": "uint256"
        },
        {
          "internalType": "uint256[]",
          "name": "randomWords",
          "type": "uint256[]"
        }
      ],
      "name": "rawFulfillRandomWords",
      "outputs": [],
      "stateMutability": "nonpayable",
      "type": "function"
    },
    {
      "inputs": [],
      "name": "requestConfirmations",
      "outputs": [
        {
          "internalType": "uint16",
          "name": "",
          "type": "uint16"
        }
      ],
      "stateMutability": "view",
      "type": "function"
    },
    {
      "inputs": [
        {
          "internalType": "uint256",
          "name": "",
          "type": "uint256"
        }
      ],
      "name": "requestIds",
      "outputs": [
        {
          "internalType": "uint256",
          "name": "",
          "type": "uint256"
        }
      ],
      "stateMutability": "view",
      "type": "function"
    },
    {
      "inputs": [
        {
          "internalType": "uint256",
          "name": "",
          "type": "uint256"
        }
      ],
      "name": "s_requests",
      "outputs": [
        {
          "internalType": "bool",
          "name": "fulfilled",
          "type": "bool"
        },
        {
          "internalType": "bool",
          "name": "exists",
          "type": "bool"
        }
      ],
      "stateMutability": "view",
      "type": "function"
    },
    {
      "inputs": [],
      "name": "s_subscriptionId",
      "outputs": [
        {
          "internalType": "uint64",
          "name": "",
          "type": "uint64"
        }
      ],
      "stateMutability": "view",
      "type": "function"
    },
    {
      "inputs": [],
      "name": "vrfCoordinator",
      "outputs": [
        {
          "internalType": "address",
          "name": "",
          "type": "address"
        }
      ],
      "stateMutability": "view",
      "type": "function"
    },
    {
      "inputs": [
        {
          "internalType": "uint64",
          "name": "subscriptionId",
          "type": "uint64"
        },
        {
          "internalType": "address",
          "name": "VRFCoordinatorV2Interfaceaddr",
          "type": "address"
        },
        {
          "internalType": "bytes32",
          "name": "_keyHash",
          "type": "bytes32"
        },
        {
          "internalType": "uint32",
          "name": "_callbackGasLimit",
          "type": "uint32"
        },
        {
          "internalType": "uint16",
          "name": "_requestConfirmations",
          "type": "uint16"
        },
        {
          "internalType": "uint32",
          "name": "_numWords",
          "type": "uint32"
        }
      ],
      "name": "setConfig",
      "outputs": [],
      "stateMutability": "nonpayable",
      "type": "function"
    },
    {
      "inputs": [],
      "name": "requestRandomWords",
      "outputs": [
        {
          "internalType": "uint256",
          "name": "requestId",
          "type": "uint256"
        }
      ],
      "stateMutability": "nonpayable",
      "type": "function"
    },
    {
      "inputs": [
        {
          "internalType": "uint256",
          "name": "_requestId",
          "type": "uint256"
        }
      ],
      "name": "getRequestStatus",
      "outputs": [
        {
          "internalType": "bool",
          "name": "fulfilled",
          "type": "bool"
        },
        {
          "internalType": "uint256[]",
          "name": "randomWords",
          "type": "uint256[]"
        }
      ],
      "stateMutability": "view",
      "type": "function"
    }
  ],
  "bytecode": "0x60806040523480156200001157600080fd5b50604051620016d9380380620016d98339818101604052810190620000379190620001c6565b846000806101000a81548173ffffffffffffffffffffffffffffffffffffffff021916908373ffffffffffffffffffffffffffffffffffffffff16021790555084600260006101000a81548173ffffffffffffffffffffffffffffffffffffffff021916908373ffffffffffffffffffffffffffffffffffffffff16021790555085600260146101000a81548167ffffffffffffffff021916908367ffffffffffffffff1602179055508360068190555082600760006101000a81548163ffffffff021916908363ffffffff16021790555081600760046101000a81548161ffff021916908361ffff16021790555080600760066101000a81548163ffffffff021916908363ffffffff16021790555050505050505062000359565b6000815190506200016481620002d7565b92915050565b6000815190506200017b81620002f1565b92915050565b60008151905062000192816200030b565b92915050565b600081519050620001a98162000325565b92915050565b600081519050620001c0816200033f565b92915050565b60008060008060008060c08789031215620001e657620001e5620002d2565b5b6000620001f689828a01620001af565b96505060206200020989828a0162000153565b95505060406200021c89828a016200016a565b94505060606200022f89828a0162000198565b93505060806200024289828a0162000181565b92505060a06200025589828a0162000198565b9150509295509295509295565b60006200026f826200028e565b9050919050565b6000819050919050565b600061ffff82169050919050565b600073ffffffffffffffffffffffffffffffffffffffff82169050919050565b600063ffffffff82169050919050565b600067ffffffffffffffff82169050919050565b600080fd5b620002e28162000262565b8114620002ee57600080fd5b50565b620002fc8162000276565b81146200030857600080fd5b50565b620003168162000280565b81146200032257600080fd5b50565b6200033081620002ae565b81146200033c57600080fd5b50565b6200034a81620002be565b81146200035657600080fd5b50565b61137080620003696000396000f3fe608060405234801561001057600080fd5b5060043610610112576000357c0100000000000000000000000000000000000000000000000000000000900480639915495a116100b4578063c3f82aca11610083578063c3f82aca14610284578063d8a4676f146102a0578063e0c86289146102d1578063fc2a88c3146102ef57610112565b80639915495a146101f9578063a168fa8914610217578063a3e56fa814610248578063b0fb162f1461026657610112565b806361728f39116100f057806361728f391461016f5780637ccfd7fc1461018d5780638796ba8c146101ab5780638ac00021146101db57610112565b80631fe543e31461011757806324f74697146101335780633b2bcbf114610151575b600080fd5b610131600480360381019061012c9190610c99565b61030d565b005b61013b6103cd565b6040516101489190611077565b60405180910390f35b6101596103e3565b6040516101669190610fad565b60405180910390f35b610177610409565b6040516101849190610f3f565b60405180910390f35b61019561040f565b6040516101a29190611077565b60405180910390f35b6101c560048036038101906101c09190610c3f565b610425565b6040516101d29190611003565b60405180910390f35b6101e3610449565b6040516101f09190611092565b60405180910390f35b610201610463565b60405161020e9190611003565b60405180910390f35b610231600480360381019061022c9190610c3f565b610469565b60405161023f929190610f16565b60405180910390f35b6102506104a7565b60405161025d9190610ea2565b60405180910390f35b61026e6104cb565b60405161027b9190610fe8565b60405180910390f35b61029e60048036038101906102999190610cf5565b6104df565b005b6102ba60048036038101906102b59190610c3f565b6105f7565b6040516102c8929190610ee6565b60405180910390f35b6102d9610722565b6040516102e69190611003565b60405180910390f35b6102f76109a5565b6040516103049190611003565b60405180910390f35b60008054906101000a900473ffffffffffffffffffffffffffffffffffffffff1673ffffffffffffffffffffffffffffffffffffffff163373ffffffffffffffffffffffffffffffffffffffff16146103bf573360008054906101000a900473ffffffffffffffffffffffffffffffffffffffff166040517f1cf993f40000000000000000000000000000000000000000000000000000000081526004016103b6929190610ebd565b60405180910390fd5b6103c982826109ab565b5050565b600760009054906101000a900463ffffffff1681565b600260009054906101000a900473ffffffffffffffffffffffffffffffffffffffff1681565b60065481565b600760069054906101000a900463ffffffff1681565b6003818154811061043557600080fd5b906000526020600020016000915090505481565b600260149054906101000a900467ffffffffffffffff1681565b60055481565b60016020528060005260406000206000915090508060000160009054906101000a900460ff16908060000160019054906101000a900460ff16905082565b60008054906101000a900473ffffffffffffffffffffffffffffffffffffffff1681565b600760049054906101000a900461ffff1681565b846000806101000a81548173ffffffffffffffffffffffffffffffffffffffff021916908373ffffffffffffffffffffffffffffffffffffffff16021790555084600260006101000a81548173ffffffffffffffffffffffffffffffffffffffff021916908373ffffffffffffffffffffffffffffffffffffffff16021790555085600260146101000a81548167ffffffffffffffff021916908367ffffffffffffffff1602179055508360068190555082600760006101000a81548163ffffffff021916908363ffffffff16021790555081600760046101000a81548161ffff021916908361ffff16021790555080600760066101000a81548163ffffffff021916908363ffffffff160217905550505050505050565b600060606001600084815260200190815260200160002060000160019054906101000a900460ff1661065e576040517f08c379a000000000000000000000000000000000000000000000000000000000815260040161065590610fc8565b60405180910390fd5b6000600160008581526020019081526020016000206040518060600160405290816000820160009054906101000a900460ff161515151581526020016000820160019054906101000a900460ff161515151581526020016001820180548060200260200160405190810160405280929190818152602001828054801561070357602002820191906000526020600020905b8154815260200190600101908083116106ef575b5050505050815250509050806000015181604001519250925050915091565b6000600260009054906101000a900473ffffffffffffffffffffffffffffffffffffffff1673ffffffffffffffffffffffffffffffffffffffff16635d3b1d30600654600260149054906101000a900467ffffffffffffffff16600760049054906101000a900461ffff16600760009054906101000a900463ffffffff16600760069054906101000a900463ffffffff166040518663ffffffff167c01000000000000000000000000000000000000000000000000000000000281526004016107ef959493929190610f5a565b602060405180830381600087803b15801561080957600080fd5b505af115801561081d573d6000803e3d6000fd5b505050506040513d601f19601f820116820180604052508101906108419190610c6c565b90506040518060600160405280600015158152602001600115158152602001600067ffffffffffffffff81111561087b5761087a611233565b5b6040519080825280602002602001820160405280156108a95781602001602082028036833780820191505090505b508152506001600083815260200190815260200160002060008201518160000160006101000a81548160ff02191690831515021790555060208201518160000160016101000a81548160ff021916908315150217905550604082015181600101908051906020019061091c929190610aa4565b50905050600381908060018154018082558091505060019003906000526020600020016000909190919091505580600481905550436005819055507fcc58b13ad3eab50626c6a6300b1d139cd6ebb1688a7cced9461c2f7e762665ee81600760069054906101000a900463ffffffff1660405161099a92919061104e565b60405180910390a190565b60045481565b6001600083815260200190815260200160002060000160019054906101000a900460ff16610a0e576040517f08c379a0000000000000000000000000000000000000000000000000000000008152600401610a0590610fc8565b60405180910390fd5b600180600084815260200190815260200160002060000160006101000a81548160ff02191690831515021790555080600160008481526020019081526020016000206001019080519060200190610a66929190610aa4565b507ffe2e2d779dba245964d4e3ef9b994be63856fd568bf7d3ca9e224755cb1bd54d8282604051610a9892919061101e565b60405180910390a15050565b828054828255906000526020600020908101928215610ae0579160200282015b82811115610adf578251825591602001919060010190610ac4565b5b509050610aed9190610af1565b5090565b5b80821115610b0a576000816000905550600101610af2565b5090565b6000610b21610b1c846110d2565b6110ad565b90508083825260208201905082856020860282011115610b4457610b43611267565b5b60005b85811015610b745781610b5a8882610beb565b845260208401935060208301925050600181019050610b47565b5050509392505050565b600081359050610b8d816112b0565b92915050565b600082601f830112610ba857610ba7611262565b5b8135610bb8848260208601610b0e565b91505092915050565b600081359050610bd0816112c7565b92915050565b600081359050610be5816112de565b92915050565b600081359050610bfa816112f5565b92915050565b600081519050610c0f816112f5565b92915050565b600081359050610c248161130c565b92915050565b600081359050610c3981611323565b92915050565b600060208284031215610c5557610c54611271565b5b6000610c6384828501610beb565b91505092915050565b600060208284031215610c8257610c81611271565b5b6000610c9084828501610c00565b91505092915050565b60008060408385031215610cb057610caf611271565b5b6000610cbe85828601610beb565b925050602083013567ffffffffffffffff811115610cdf57610cde61126c565b5b610ceb85828601610b93565b9150509250929050565b60008060008060008060c08789031215610d1257610d11611271565b5b6000610d2089828a01610c2a565b9650506020610d3189828a01610b7e565b9550506040610d4289828a01610bc1565b9450506060610d5389828a01610c15565b9350506080610d6489828a01610bd6565b92505060a0610d7589828a01610c15565b9150509295509295509295565b6000610d8e8383610e66565b60208301905092915050565b610da381611148565b82525050565b6000610db48261110e565b610dbe8185611126565b9350610dc9836110fe565b8060005b83811015610dfa578151610de18882610d82565b9750610dec83611119565b925050600181019050610dcd565b5085935050505092915050565b610e108161115a565b82525050565b610e1f81611166565b82525050565b610e2e816111cc565b82525050565b6000610e41601183611137565b9150610e4c82611287565b602082019050919050565b610e6081611170565b82525050565b610e6f8161119e565b82525050565b610e7e8161119e565b82525050565b610e8d816111a8565b82525050565b610e9c816111b8565b82525050565b6000602082019050610eb76000830184610d9a565b92915050565b6000604082019050610ed26000830185610d9a565b610edf6020830184610d9a565b9392505050565b6000604082019050610efb6000830185610e07565b8181036020830152610f0d8184610da9565b90509392505050565b6000604082019050610f2b6000830185610e07565b610f386020830184610e07565b9392505050565b6000602082019050610f546000830184610e16565b92915050565b600060a082019050610f6f6000830188610e16565b610f7c6020830187610e93565b610f896040830186610e57565b610f966060830185610e84565b610fa36080830184610e84565b9695505050505050565b6000602082019050610fc26000830184610e25565b92915050565b60006020820190508181036000830152610fe181610e34565b9050919050565b6000602082019050610ffd6000830184610e57565b92915050565b60006020820190506110186000830184610e75565b92915050565b60006040820190506110336000830185610e75565b81810360208301526110458184610da9565b90509392505050565b60006040820190506110636000830185610e75565b6110706020830184610e84565b9392505050565b600060208201905061108c6000830184610e84565b92915050565b60006020820190506110a76000830184610e93565b92915050565b60006110b76110c8565b90506110c38282611202565b919050565b6000604051905090565b600067ffffffffffffffff8211156110ed576110ec611233565b5b602082029050602081019050919050565b6000819050602082019050919050565b600081519050919050565b6000602082019050919050565b600082825260208201905092915050565b600082825260208201905092915050565b60006111538261117e565b9050919050565b60008115159050919050565b6000819050919050565b600061ffff82169050919050565b600073ffffffffffffffffffffffffffffffffffffffff82169050919050565b6000819050919050565b600063ffffffff82169050919050565b600067ffffffffffffffff82169050919050565b60006111d7826111de565b9050919050565b60006111e9826111f0565b9050919050565b60006111fb8261117e565b9050919050565b61120b82611276565b810181811067ffffffffffffffff8211171561122a57611229611233565b5b80604052505050565b7f4e487b7100000000000000000000000000000000000000000000000000000000600052604160045260246000fd5b600080fd5b600080fd5b600080fd5b600080fd5b6000601f19601f8301169050919050565b7f72657175657374206e6f7420666f756e64000000000000000000000000000000600082015250565b6112b981611148565b81146112c457600080fd5b50565b6112d081611166565b81146112db57600080fd5b50565b6112e781611170565b81146112f257600080fd5b50565b6112fe8161119e565b811461130957600080fd5b50565b611315816111a8565b811461132057600080fd5b50565b61132c816111b8565b811461133757600080fd5b5056fea2646970667358221220b7f7586516221b265af4aae214eb1ec6a713aa0461d41d670264bc24ff4d7bec64736f6c63430008070033",
  "immutableReferences": {},
  "source": "// SPDX-License-Identifier: MIT\npragma solidity ^0.8.7;\n\nimport \"./interfaces/VRFCoordinatorV2Interface.sol\";\nimport \"./interfaces/VRFConsumerBaseV2.sol\";\n\ncontract VRFConsumerExample is VRFConsumerBaseV2 {\n    event RequestSent(uint256 requestId, uint32 numWords);\n    event RequestFulfilled(uint256 requestId, uint256[] randomWords);\n\n    struct RequestStatus {\n        bool fulfilled; // whether the request has been successfully fulfilled\n        bool exists; // whether a requestId exists\n        uint256[] randomWords;\n    }\n    mapping(uint256 => RequestStatus) public s_requests; /* requestId --> requestStatus */\n    VRFCoordinatorV2Interface public COORDINATOR;\n\n    // Your subscription ID.\n    uint64 public s_subscriptionId;\n\n    // past requests Id.\n    uint256[] public requestIds;\n    uint256 public lastRequestId;\n    uint256 public lastRequestBlockNumber;\n    bytes32 public keyHash;\n    uint32 public callbackGasLimit;\n    uint16 public requestConfirmations;\n    uint32 public numWords;\n\n    constructor(\n        uint64 subscriptionId,\n        address VRFCoordinatorV2Interfaceaddr,\n        bytes32 _keyHash,\n        uint32 _callbackGasLimit,\n        uint16 _requestConfirmations,\n        uint32 _numWords\n    ) {\n        vrfCoordinator = VRFCoordinatorV2Interfaceaddr;\n        COORDINATOR = VRFCoordinatorV2Interface(VRFCoordinatorV2Interfaceaddr);\n        s_subscriptionId = subscriptionId;\n        keyHash = _keyHash;\n        callbackGasLimit = _callbackGasLimit;\n        requestConfirmations = _requestConfirmations;\n        numWords = _numWords;\n    }\n\n    function setConfig(\n        uint64 subscriptionId,\n        address VRFCoordinatorV2Interfaceaddr,\n        bytes32 _keyHash,\n        uint32 _callbackGasLimit,\n        uint16 _requestConfirmations,\n        uint32 _numWords\n    ) external {\n        vrfCoordinator = VRFCoordinatorV2Interfaceaddr;\n        COORDINATOR = VRFCoordinatorV2Interface(VRFCoordinatorV2Interfaceaddr);\n        s_subscriptionId = subscriptionId;\n        keyHash = _keyHash;\n        callbackGasLimit = _callbackGasLimit;\n        requestConfirmations = _requestConfirmations;\n        numWords = _numWords;\n    }\n\n    // Assumes the subscription is funded sufficiently.\n    function requestRandomWords() external returns (uint256 requestId) {\n        // Will revert if subscription is not set and funded.\n        requestId = COORDINATOR.requestRandomWords(\n            keyHash,\n            s_subscriptionId,\n            requestConfirmations,\n            callbackGasLimit,\n            numWords\n        );\n        s_requests[requestId] = RequestStatus({\n            randomWords: new uint256[](0),\n            exists: true,\n            fulfilled: false\n        });\n        requestIds.push(requestId);\n        lastRequestId = requestId;\n\n        lastRequestBlockNumber = block.number;\n        emit RequestSent(requestId, numWords);\n        return requestId;\n    }\n\n    function fulfillRandomWords(\n        uint256 _requestId,\n        uint256[] memory _randomWords\n    ) internal override {\n        require(s_requests[_requestId].exists, \"request not found\");\n        s_requests[_requestId].fulfilled = true;\n        s_requests[_requestId].randomWords = _randomWords;\n        emit RequestFulfilled(_requestId, _randomWords);\n    }\n\n    function getRequestStatus(uint256 _requestId)\n        external\n        view\n        returns (bool fulfilled, uint256[] memory randomWords)\n    {\n        require(s_requests[_requestId].exists, \"request not found\");\n        RequestStatus memory request = s_requests[_requestId];\n        return (request.fulfilled, request.randomWords);\n    }\n    \n}\n",
  "sourcePath": "/Users/jzteam/Documents/program/explore/contract/truffle/contracts/VRFConsumerExample.sol",
  "compiler": {
    "name": "solc",
    "version": "0.8.7+commit.e28d00a7.Emscripten.clang"
  },
  "schemaVersion": "3.4.13",
  "updatedAt": "2023-05-10T06:22:37.973Z",
  "devdoc": {
    "kind": "dev",
    "methods": {},
    "version": 1
  },
  "userdoc": {
    "kind": "user",
    "methods": {},
    "version": 1
  }
}